{
  "_format": "hh-sol-artifact-1",
  "contractName": "Airdrop_NFT_Collection",
  "sourceName": "contracts/collection.sol",
  "abi": [
    {
      "inputs": [
        {
          "internalType": "string",
          "name": "name_",
          "type": "string"
        },
        {
          "internalType": "string",
          "name": "symbol_",
          "type": "string"
        }
      ],
      "stateMutability": "nonpayable",
      "type": "constructor"
    },
    {
      "anonymous": false,
      "inputs": [
        {
          "indexed": true,
          "internalType": "address",
          "name": "owner",
          "type": "address"
        },
        {
          "indexed": true,
          "internalType": "address",
          "name": "approved",
          "type": "address"
        },
        {
          "indexed": true,
          "internalType": "uint256",
          "name": "tokenId",
          "type": "uint256"
        }
      ],
      "name": "Approval",
      "type": "event"
    },
    {
      "anonymous": false,
      "inputs": [
        {
          "indexed": true,
          "internalType": "address",
          "name": "owner",
          "type": "address"
        },
        {
          "indexed": true,
          "internalType": "address",
          "name": "operator",
          "type": "address"
        },
        {
          "indexed": false,
          "internalType": "bool",
          "name": "approved",
          "type": "bool"
        }
      ],
      "name": "ApprovalForAll",
      "type": "event"
    },
    {
      "anonymous": false,
      "inputs": [
        {
          "indexed": true,
          "internalType": "address",
          "name": "previousOwner",
          "type": "address"
        },
        {
          "indexed": true,
          "internalType": "address",
          "name": "newOwner",
          "type": "address"
        }
      ],
      "name": "OwnershipTransferred",
      "type": "event"
    },
    {
      "anonymous": false,
      "inputs": [
        {
          "indexed": true,
          "internalType": "address",
          "name": "from",
          "type": "address"
        },
        {
          "indexed": true,
          "internalType": "address",
          "name": "to",
          "type": "address"
        },
        {
          "indexed": true,
          "internalType": "uint256",
          "name": "tokenId",
          "type": "uint256"
        }
      ],
      "name": "Transfer",
      "type": "event"
    },
    {
      "inputs": [
        {
          "internalType": "address",
          "name": "to",
          "type": "address"
        },
        {
          "internalType": "uint256",
          "name": "tokenId",
          "type": "uint256"
        }
      ],
      "name": "approve",
      "outputs": [],
      "stateMutability": "nonpayable",
      "type": "function"
    },
    {
      "inputs": [
        {
          "internalType": "address",
          "name": "owner",
          "type": "address"
        }
      ],
      "name": "balanceOf",
      "outputs": [
        {
          "internalType": "uint256",
          "name": "",
          "type": "uint256"
        }
      ],
      "stateMutability": "view",
      "type": "function"
    },
    {
      "inputs": [
        {
          "internalType": "uint256",
          "name": "tokenId",
          "type": "uint256"
        }
      ],
      "name": "burn",
      "outputs": [],
      "stateMutability": "nonpayable",
      "type": "function"
    },
    {
      "inputs": [
        {
          "internalType": "uint256",
          "name": "tokenId",
          "type": "uint256"
        }
      ],
      "name": "getApproved",
      "outputs": [
        {
          "internalType": "address",
          "name": "",
          "type": "address"
        }
      ],
      "stateMutability": "view",
      "type": "function"
    },
    {
      "inputs": [
        {
          "internalType": "address",
          "name": "owner",
          "type": "address"
        },
        {
          "internalType": "address",
          "name": "operator",
          "type": "address"
        }
      ],
      "name": "isApprovedForAll",
      "outputs": [
        {
          "internalType": "bool",
          "name": "",
          "type": "bool"
        }
      ],
      "stateMutability": "view",
      "type": "function"
    },
    {
      "inputs": [],
      "name": "name",
      "outputs": [
        {
          "internalType": "string",
          "name": "",
          "type": "string"
        }
      ],
      "stateMutability": "view",
      "type": "function"
    },
    {
      "inputs": [],
      "name": "owner",
      "outputs": [
        {
          "internalType": "address",
          "name": "",
          "type": "address"
        }
      ],
      "stateMutability": "view",
      "type": "function"
    },
    {
      "inputs": [
        {
          "internalType": "uint256",
          "name": "tokenId",
          "type": "uint256"
        }
      ],
      "name": "ownerOf",
      "outputs": [
        {
          "internalType": "address",
          "name": "",
          "type": "address"
        }
      ],
      "stateMutability": "view",
      "type": "function"
    },
    {
      "inputs": [],
      "name": "renounceOwnership",
      "outputs": [],
      "stateMutability": "nonpayable",
      "type": "function"
    },
    {
      "inputs": [
        {
          "internalType": "uint256",
          "name": "tokenId",
          "type": "uint256"
        },
        {
          "internalType": "string",
          "name": "uri",
          "type": "string"
        }
      ],
      "name": "safeMint",
      "outputs": [],
      "stateMutability": "nonpayable",
      "type": "function"
    },
    {
      "inputs": [
        {
          "internalType": "address",
          "name": "from",
          "type": "address"
        },
        {
          "internalType": "address",
          "name": "to",
          "type": "address"
        },
        {
          "internalType": "uint256",
          "name": "tokenId",
          "type": "uint256"
        }
      ],
      "name": "safeTransferFrom",
      "outputs": [],
      "stateMutability": "nonpayable",
      "type": "function"
    },
    {
      "inputs": [
        {
          "internalType": "address",
          "name": "from",
          "type": "address"
        },
        {
          "internalType": "address",
          "name": "to",
          "type": "address"
        },
        {
          "internalType": "uint256",
          "name": "tokenId",
          "type": "uint256"
        },
        {
          "internalType": "bytes",
          "name": "data",
          "type": "bytes"
        }
      ],
      "name": "safeTransferFrom",
      "outputs": [],
      "stateMutability": "nonpayable",
      "type": "function"
    },
    {
      "inputs": [
        {
          "internalType": "address",
          "name": "operator",
          "type": "address"
        },
        {
          "internalType": "bool",
          "name": "approved",
          "type": "bool"
        }
      ],
      "name": "setApprovalForAll",
      "outputs": [],
      "stateMutability": "nonpayable",
      "type": "function"
    },
    {
      "inputs": [
        {
          "internalType": "uint256",
          "name": "tokenId",
          "type": "uint256"
        },
        {
          "internalType": "string",
          "name": "_tokenURI",
          "type": "string"
        }
      ],
      "name": "setTokenURI",
      "outputs": [],
      "stateMutability": "nonpayable",
      "type": "function"
    },
    {
      "inputs": [
        {
          "internalType": "bytes4",
          "name": "interfaceId",
          "type": "bytes4"
        }
      ],
      "name": "supportsInterface",
      "outputs": [
        {
          "internalType": "bool",
          "name": "",
          "type": "bool"
        }
      ],
      "stateMutability": "view",
      "type": "function"
    },
    {
      "inputs": [],
      "name": "symbol",
      "outputs": [
        {
          "internalType": "string",
          "name": "",
          "type": "string"
        }
      ],
      "stateMutability": "view",
      "type": "function"
    },
    {
      "inputs": [
        {
          "internalType": "uint256",
          "name": "tokenId",
          "type": "uint256"
        }
      ],
      "name": "tokenURI",
      "outputs": [
        {
          "internalType": "string",
          "name": "",
          "type": "string"
        }
      ],
      "stateMutability": "view",
      "type": "function"
    },
    {
      "inputs": [],
      "name": "totalSupply",
      "outputs": [
        {
          "internalType": "uint256",
          "name": "",
          "type": "uint256"
        }
      ],
      "stateMutability": "view",
      "type": "function"
    },
    {
      "inputs": [
        {
          "internalType": "address",
          "name": "from",
          "type": "address"
        },
        {
          "internalType": "address",
          "name": "to",
          "type": "address"
        },
        {
          "internalType": "uint256",
          "name": "tokenId",
          "type": "uint256"
        }
      ],
      "name": "transferFrom",
      "outputs": [],
      "stateMutability": "nonpayable",
      "type": "function"
    },
    {
      "inputs": [
        {
          "internalType": "address",
          "name": "newOwner",
          "type": "address"
        }
      ],
      "name": "transferOwnership",
      "outputs": [],
      "stateMutability": "nonpayable",
      "type": "function"
    }
  ],
  "bytecode": "0x608060405261270f60035560636004553480156200001c57600080fd5b50604051620035513803806200355183398181016040528101906200004291906200028e565b81816200006462000058620000a060201b60201c565b620000a860201b60201c565b81600190805190602001906200007c9291906200016c565b508060029080519060200190620000959291906200016c565b505050505062000471565b600033905090565b60008060009054906101000a900473ffffffffffffffffffffffffffffffffffffffff169050816000806101000a81548173ffffffffffffffffffffffffffffffffffffffff021916908373ffffffffffffffffffffffffffffffffffffffff1602179055508173ffffffffffffffffffffffffffffffffffffffff168173ffffffffffffffffffffffffffffffffffffffff167f8be0079c531659141344cd1fd0a4f28419497f9722a3daafe3b4186f6b6457e060405160405180910390a35050565b8280546200017a9062000396565b90600052602060002090601f0160209004810192826200019e5760008555620001ea565b82601f10620001b957805160ff1916838001178555620001ea565b82800160010185558215620001ea579182015b82811115620001e9578251825591602001919060010190620001cc565b5b509050620001f99190620001fd565b5090565b5b8082111562000218576000816000905550600101620001fe565b5090565b6000620002336200022d846200032a565b62000301565b9050828152602081018484840111156200024c57600080fd5b6200025984828562000360565b509392505050565b600082601f8301126200027357600080fd5b8151620002858482602086016200021c565b91505092915050565b60008060408385031215620002a257600080fd5b600083015167ffffffffffffffff811115620002bd57600080fd5b620002cb8582860162000261565b925050602083015167ffffffffffffffff811115620002e957600080fd5b620002f78582860162000261565b9150509250929050565b60006200030d62000320565b90506200031b8282620003cc565b919050565b6000604051905090565b600067ffffffffffffffff82111562000348576200034762000431565b5b620003538262000460565b9050602081019050919050565b60005b838110156200038057808201518184015260208101905062000363565b8381111562000390576000848401525b50505050565b60006002820490506001821680620003af57607f821691505b60208210811415620003c657620003c562000402565b5b50919050565b620003d78262000460565b810181811067ffffffffffffffff82111715620003f957620003f862000431565b5b80604052505050565b7f4e487b7100000000000000000000000000000000000000000000000000000000600052602260045260246000fd5b7f4e487b7100000000000000000000000000000000000000000000000000000000600052604160045260246000fd5b6000601f19601f8301169050919050565b6130d080620004816000396000f3fe608060405234801561001057600080fd5b506004361061012c5760003560e01c806370a08231116100ad578063b88d4fde11610071578063b88d4fde1461031b578063bb96e08214610337578063c87b56dd14610353578063e985e9c514610383578063f2fde38b146103b35761012c565b806370a0823114610289578063715018a6146102b95780638da5cb5b146102c357806395d89b41146102e1578063a22cb465146102ff5761012c565b806318160ddd116100f457806318160ddd146101e757806323b872dd1461020557806342842e0e1461022157806342966c681461023d5780636352211e146102595761012c565b806301ffc9a71461013157806306fdde0314610161578063081812fc1461017f578063095ea7b3146101af578063162094c4146101cb575b600080fd5b61014b60048036038101906101469190612299565b6103cf565b60405161015891906126ad565b60405180910390f35b6101696104b1565b60405161017691906126c8565b60405180910390f35b610199600480360381019061019491906122eb565b610543565b6040516101a69190612646565b60405180910390f35b6101c960048036038101906101c4919061225d565b610589565b005b6101e560048036038101906101e09190612314565b6106a1565b005b6101ef6106b7565b6040516101fc91906128aa565b60405180910390f35b61021f600480360381019061021a9190612157565b6106c1565b005b61023b60048036038101906102369190612157565b610721565b005b610257600480360381019061025291906122eb565b610741565b005b610273600480360381019061026e91906122eb565b61079d565b6040516102809190612646565b60405180910390f35b6102a3600480360381019061029e91906120f2565b61084f565b6040516102b091906128aa565b60405180910390f35b6102c1610907565b005b6102cb61091b565b6040516102d89190612646565b60405180910390f35b6102e9610944565b6040516102f691906126c8565b60405180910390f35b61031960048036038101906103149190612221565b6109d6565b005b610335600480360381019061033091906121a6565b6109ec565b005b610351600480360381019061034c9190612314565b610a4e565b005b61036d600480360381019061036891906122eb565b610a75565b60405161037a91906126c8565b60405180910390f35b61039d6004803603810190610398919061211b565b610a87565b6040516103aa91906126ad565b60405180910390f35b6103cd60048036038101906103c891906120f2565b610b1b565b005b60007f80ac58cd000000000000000000000000000000000000000000000000000000007bffffffffffffffffffffffffffffffffffffffffffffffffffffffff1916827bffffffffffffffffffffffffffffffffffffffffffffffffffffffff1916148061049a57507f5b5e139f000000000000000000000000000000000000000000000000000000007bffffffffffffffffffffffffffffffffffffffffffffffffffffffff1916827bffffffffffffffffffffffffffffffffffffffffffffffffffffffff1916145b806104aa57506104a982610b9f565b5b9050919050565b6060600180546104c090612b00565b80601f01602080910402602001604051908101604052809291908181526020018280546104ec90612b00565b80156105395780601f1061050e57610100808354040283529160200191610539565b820191906000526020600020905b81548152906001019060200180831161051c57829003601f168201915b5050505050905090565b600061054e82610c09565b6009600083815260200190815260200160002060009054906101000a900473ffffffffffffffffffffffffffffffffffffffff169050919050565b60006105948261079d565b90508073ffffffffffffffffffffffffffffffffffffffff168373ffffffffffffffffffffffffffffffffffffffff161415610605576040517f08c379a00000000000000000000000000000000000000000000000000000000081526004016105fc9061286a565b60405180910390fd5b8073ffffffffffffffffffffffffffffffffffffffff16610624610c54565b73ffffffffffffffffffffffffffffffffffffffff16148061065357506106528161064d610c54565b610a87565b5b610692576040517f08c379a0000000000000000000000000000000000000000000000000000000008152600401610689906127ea565b60405180910390fd5b61069c8383610c5c565b505050565b6106a9610d15565b6106b38282610d93565b5050565b6000600554905090565b6106d26106cc610c54565b82610dbf565b610711576040517f08c379a00000000000000000000000000000000000000000000000000000000081526004016107089061288a565b60405180910390fd5b61071c838383610e54565b505050565b61073c838383604051806020016040528060008152506109ec565b505050565b61075261074c610c54565b82610dbf565b610791576040517f08c379a00000000000000000000000000000000000000000000000000000000081526004016107889061288a565b60405180910390fd5b61079a8161114b565b50565b6000806006600084815260200190815260200160002060009054906101000a900473ffffffffffffffffffffffffffffffffffffffff169050600073ffffffffffffffffffffffffffffffffffffffff168173ffffffffffffffffffffffffffffffffffffffff161415610846576040517f08c379a000000000000000000000000000000000000000000000000000000000815260040161083d9061284a565b60405180910390fd5b80915050919050565b60008073ffffffffffffffffffffffffffffffffffffffff168273ffffffffffffffffffffffffffffffffffffffff1614156108c0576040517f08c379a00000000000000000000000000000000000000000000000000000000081526004016108b7906127ca565b60405180910390fd5b600860008373ffffffffffffffffffffffffffffffffffffffff1673ffffffffffffffffffffffffffffffffffffffff168152602001908152602001600020549050919050565b61090f610d15565b6109196000611157565b565b60008060009054906101000a900473ffffffffffffffffffffffffffffffffffffffff16905090565b60606002805461095390612b00565b80601f016020809104026020016040519081016040528092919081815260200182805461097f90612b00565b80156109cc5780601f106109a1576101008083540402835291602001916109cc565b820191906000526020600020905b8154815290600101906020018083116109af57829003601f168201915b5050505050905090565b6109e86109e1610c54565b838361121b565b5050565b6109fd6109f7610c54565b83610dbf565b610a3c576040517f08c379a0000000000000000000000000000000000000000000000000000000008152600401610a339061288a565b60405180910390fd5b610a4884848484611388565b50505050565b610a56610d15565b610a67610a61610c54565b836113e4565b610a718282610d93565b5050565b6060610a8082611402565b9050919050565b6000600a60008473ffffffffffffffffffffffffffffffffffffffff1673ffffffffffffffffffffffffffffffffffffffff16815260200190815260200160002060008373ffffffffffffffffffffffffffffffffffffffff1673ffffffffffffffffffffffffffffffffffffffff16815260200190815260200160002060009054906101000a900460ff16905092915050565b610b23610d15565b600073ffffffffffffffffffffffffffffffffffffffff168173ffffffffffffffffffffffffffffffffffffffff161415610b93576040517f08c379a0000000000000000000000000000000000000000000000000000000008152600401610b8a9061270a565b60405180910390fd5b610b9c81611157565b50565b60007f01ffc9a7000000000000000000000000000000000000000000000000000000007bffffffffffffffffffffffffffffffffffffffffffffffffffffffff1916827bffffffffffffffffffffffffffffffffffffffffffffffffffffffff1916149050919050565b610c1281611515565b610c51576040517f08c379a0000000000000000000000000000000000000000000000000000000008152600401610c489061284a565b60405180910390fd5b50565b600033905090565b816009600083815260200190815260200160002060006101000a81548173ffffffffffffffffffffffffffffffffffffffff021916908373ffffffffffffffffffffffffffffffffffffffff160217905550808273ffffffffffffffffffffffffffffffffffffffff16610ccf8361079d565b73ffffffffffffffffffffffffffffffffffffffff167f8c5be1e5ebec7d5bd14f71427d1e84f3dd0314c0f7b2291e5b200ac8c7c3b92560405160405180910390a45050565b610d1d610c54565b73ffffffffffffffffffffffffffffffffffffffff16610d3b61091b565b73ffffffffffffffffffffffffffffffffffffffff1614610d91576040517f08c379a0000000000000000000000000000000000000000000000000000000008152600401610d889061282a565b60405180910390fd5b565b80600b60008481526020019081526020016000209080519060200190610dba929190611ed6565b505050565b600080610dcb8361079d565b90508073ffffffffffffffffffffffffffffffffffffffff168473ffffffffffffffffffffffffffffffffffffffff161480610e0d5750610e0c8185610a87565b5b80610e4b57508373ffffffffffffffffffffffffffffffffffffffff16610e3384610543565b73ffffffffffffffffffffffffffffffffffffffff16145b91505092915050565b8273ffffffffffffffffffffffffffffffffffffffff16610e748261079d565b73ffffffffffffffffffffffffffffffffffffffff1614610eca576040517f08c379a0000000000000000000000000000000000000000000000000000000008152600401610ec19061272a565b60405180910390fd5b600073ffffffffffffffffffffffffffffffffffffffff168273ffffffffffffffffffffffffffffffffffffffff161415610f3a576040517f08c379a0000000000000000000000000000000000000000000000000000000008152600401610f319061276a565b60405180910390fd5b610f45838383611581565b610f50600082610c5c565b6001600860008573ffffffffffffffffffffffffffffffffffffffff1673ffffffffffffffffffffffffffffffffffffffff1681526020019081526020016000206000828254610fa09190612a16565b925050819055506001600860008473ffffffffffffffffffffffffffffffffffffffff1673ffffffffffffffffffffffffffffffffffffffff1681526020019081526020016000206000828254610ff7919061298f565b92505081905550816006600083815260200190815260200160002060006101000a81548173ffffffffffffffffffffffffffffffffffffffff021916908373ffffffffffffffffffffffffffffffffffffffff1602179055506000600760008473ffffffffffffffffffffffffffffffffffffffff1673ffffffffffffffffffffffffffffffffffffffff16815260200190815260200160002060009054906101000a900460ff1690506000151581151514156110df57600460008154809291906110c190612b63565b9190505550600354600454116110de576110dd60045484611586565b5b5b818373ffffffffffffffffffffffffffffffffffffffff168573ffffffffffffffffffffffffffffffffffffffff167fddf252ad1be2c89b69c2b068fc378daa952ba7f163c4a11628f55a4df523b3ef60405160405180910390a46111458484846116ff565b50505050565b61115481611704565b50565b60008060009054906101000a900473ffffffffffffffffffffffffffffffffffffffff169050816000806101000a81548173ffffffffffffffffffffffffffffffffffffffff021916908373ffffffffffffffffffffffffffffffffffffffff1602179055508173ffffffffffffffffffffffffffffffffffffffff168173ffffffffffffffffffffffffffffffffffffffff167f8be0079c531659141344cd1fd0a4f28419497f9722a3daafe3b4186f6b6457e060405160405180910390a35050565b8173ffffffffffffffffffffffffffffffffffffffff168373ffffffffffffffffffffffffffffffffffffffff16141561128a576040517f08c379a00000000000000000000000000000000000000000000000000000000081526004016112819061278a565b60405180910390fd5b80600a60008573ffffffffffffffffffffffffffffffffffffffff1673ffffffffffffffffffffffffffffffffffffffff16815260200190815260200160002060008473ffffffffffffffffffffffffffffffffffffffff1673ffffffffffffffffffffffffffffffffffffffff16815260200190815260200160002060006101000a81548160ff0219169083151502179055508173ffffffffffffffffffffffffffffffffffffffff168373ffffffffffffffffffffffffffffffffffffffff167f17307eab39ab6107e8899845ad3d59bd9653f200f220920489ca2b5937696c318360405161137b91906126ad565b60405180910390a3505050565b611393848484610e54565b61139f84848484611757565b6113de576040517f08c379a00000000000000000000000000000000000000000000000000000000081526004016113d5906126ea565b60405180910390fd5b50505050565b6113fe8282604051806020016040528060008152506118ee565b5050565b606061140d82610c09565b6000600b6000848152602001908152602001600020805461142d90612b00565b80601f016020809104026020016040519081016040528092919081815260200182805461145990612b00565b80156114a65780601f1061147b576101008083540402835291602001916114a6565b820191906000526020600020905b81548152906001019060200180831161148957829003601f168201915b5050505050905060006114b7611949565b90506000815114156114cd578192505050611510565b6000825111156115025780826040516020016114ea929190612622565b60405160208183030381529060405292505050611510565b61150b84611960565b925050505b919050565b60008073ffffffffffffffffffffffffffffffffffffffff166006600084815260200190815260200160002060009054906101000a900473ffffffffffffffffffffffffffffffffffffffff1673ffffffffffffffffffffffffffffffffffffffff1614159050919050565b505050565b61159260008284611581565b6001600860008373ffffffffffffffffffffffffffffffffffffffff1673ffffffffffffffffffffffffffffffffffffffff16815260200190815260200160002060008282546115e2919061298f565b92505081905550806006600084815260200190815260200160002060006101000a81548173ffffffffffffffffffffffffffffffffffffffff021916908373ffffffffffffffffffffffffffffffffffffffff160217905550818173ffffffffffffffffffffffffffffffffffffffff16600073ffffffffffffffffffffffffffffffffffffffff167fddf252ad1be2c89b69c2b068fc378daa952ba7f163c4a11628f55a4df523b3ef60405160405180910390a46116a3600082846116ff565b6001600760008373ffffffffffffffffffffffffffffffffffffffff1673ffffffffffffffffffffffffffffffffffffffff16815260200190815260200160002060006101000a81548160ff0219169083151502179055505050565b505050565b61170d816119c8565b6000600b6000838152602001908152602001600020805461172d90612b00565b90501461175457600b600082815260200190815260200160002060006117539190611f5c565b5b50565b60006117788473ffffffffffffffffffffffffffffffffffffffff16611ae5565b156118e1578373ffffffffffffffffffffffffffffffffffffffff1663150b7a026117a1610c54565b8786866040518563ffffffff1660e01b81526004016117c39493929190612661565b602060405180830381600087803b1580156117dd57600080fd5b505af192505050801561180e57506040513d601f19601f8201168201806040525081019061180b91906122c2565b60015b611891573d806000811461183e576040519150601f19603f3d011682016040523d82523d6000602084013e611843565b606091505b50600081511415611889576040517f08c379a0000000000000000000000000000000000000000000000000000000008152600401611880906126ea565b60405180910390fd5b805181602001fd5b63150b7a0260e01b7bffffffffffffffffffffffffffffffffffffffffffffffffffffffff1916817bffffffffffffffffffffffffffffffffffffffffffffffffffffffff1916149150506118e6565b600190505b949350505050565b6118f88383611b08565b6119056000848484611757565b611944576040517f08c379a000000000000000000000000000000000000000000000000000000000815260040161193b906126ea565b60405180910390fd5b505050565b606060405180602001604052806000815250905090565b606061196b82610c09565b6000611975611949565b9050600081511161199557604051806020016040528060008152506119c0565b8061199f84611d29565b6040516020016119b0929190612622565b6040516020818303038152906040525b915050919050565b60006119d38261079d565b90506119e181600084611581565b6119ec600083610c5c565b6001600860008373ffffffffffffffffffffffffffffffffffffffff1673ffffffffffffffffffffffffffffffffffffffff1681526020019081526020016000206000828254611a3c9190612a16565b925050819055506006600083815260200190815260200160002060006101000a81549073ffffffffffffffffffffffffffffffffffffffff021916905581600073ffffffffffffffffffffffffffffffffffffffff168273ffffffffffffffffffffffffffffffffffffffff167fddf252ad1be2c89b69c2b068fc378daa952ba7f163c4a11628f55a4df523b3ef60405160405180910390a4611ae1816000846116ff565b5050565b6000808273ffffffffffffffffffffffffffffffffffffffff163b119050919050565b600073ffffffffffffffffffffffffffffffffffffffff168273ffffffffffffffffffffffffffffffffffffffff161415611b78576040517f08c379a0000000000000000000000000000000000000000000000000000000008152600401611b6f9061280a565b60405180910390fd5b611b8181611515565b15611bc1576040517f08c379a0000000000000000000000000000000000000000000000000000000008152600401611bb89061274a565b60405180910390fd5b6003546005541115611c08576040517f08c379a0000000000000000000000000000000000000000000000000000000008152600401611bff906127aa565b60405180910390fd5b611c1460008383611581565b6001600860008473ffffffffffffffffffffffffffffffffffffffff1673ffffffffffffffffffffffffffffffffffffffff1681526020019081526020016000206000828254611c64919061298f565b92505081905550816006600083815260200190815260200160002060006101000a81548173ffffffffffffffffffffffffffffffffffffffff021916908373ffffffffffffffffffffffffffffffffffffffff160217905550808273ffffffffffffffffffffffffffffffffffffffff16600073ffffffffffffffffffffffffffffffffffffffff167fddf252ad1be2c89b69c2b068fc378daa952ba7f163c4a11628f55a4df523b3ef60405160405180910390a4611d25600083836116ff565b5050565b60606000821415611d71576040518060400160405280600181526020017f30000000000000000000000000000000000000000000000000000000000000008152509050611ed1565b600082905060005b60008214611da3578080611d8c90612b63565b915050600a82611d9c91906129e5565b9150611d79565b60008167ffffffffffffffff811115611de5577f4e487b7100000000000000000000000000000000000000000000000000000000600052604160045260246000fd5b6040519080825280601f01601f191660200182016040528015611e175781602001600182028036833780820191505090505b5090505b60008514611eca57600182611e309190612a16565b9150600a85611e3f9190612bac565b6030611e4b919061298f565b60f81b818381518110611e87577f4e487b7100000000000000000000000000000000000000000000000000000000600052603260045260246000fd5b60200101907effffffffffffffffffffffffffffffffffffffffffffffffffffffffffffff1916908160001a905350600a85611ec391906129e5565b9450611e1b565b8093505050505b919050565b828054611ee290612b00565b90600052602060002090601f016020900481019282611f045760008555611f4b565b82601f10611f1d57805160ff1916838001178555611f4b565b82800160010185558215611f4b579182015b82811115611f4a578251825591602001919060010190611f2f565b5b509050611f589190611f9c565b5090565b508054611f6890612b00565b6000825580601f10611f7a5750611f99565b601f016020900490600052602060002090810190611f989190611f9c565b5b50565b5b80821115611fb5576000816000905550600101611f9d565b5090565b6000611fcc611fc7846128ea565b6128c5565b905082815260208101848484011115611fe457600080fd5b611fef848285612abe565b509392505050565b600061200a6120058461291b565b6128c5565b90508281526020810184848401111561202257600080fd5b61202d848285612abe565b509392505050565b6000813590506120448161303e565b92915050565b60008135905061205981613055565b92915050565b60008135905061206e8161306c565b92915050565b6000815190506120838161306c565b92915050565b600082601f83011261209a57600080fd5b81356120aa848260208601611fb9565b91505092915050565b600082601f8301126120c457600080fd5b81356120d4848260208601611ff7565b91505092915050565b6000813590506120ec81613083565b92915050565b60006020828403121561210457600080fd5b600061211284828501612035565b91505092915050565b6000806040838503121561212e57600080fd5b600061213c85828601612035565b925050602061214d85828601612035565b9150509250929050565b60008060006060848603121561216c57600080fd5b600061217a86828701612035565b935050602061218b86828701612035565b925050604061219c868287016120dd565b9150509250925092565b600080600080608085870312156121bc57600080fd5b60006121ca87828801612035565b94505060206121db87828801612035565b93505060406121ec878288016120dd565b925050606085013567ffffffffffffffff81111561220957600080fd5b61221587828801612089565b91505092959194509250565b6000806040838503121561223457600080fd5b600061224285828601612035565b92505060206122538582860161204a565b9150509250929050565b6000806040838503121561227057600080fd5b600061227e85828601612035565b925050602061228f858286016120dd565b9150509250929050565b6000602082840312156122ab57600080fd5b60006122b98482850161205f565b91505092915050565b6000602082840312156122d457600080fd5b60006122e284828501612074565b91505092915050565b6000602082840312156122fd57600080fd5b600061230b848285016120dd565b91505092915050565b6000806040838503121561232757600080fd5b6000612335858286016120dd565b925050602083013567ffffffffffffffff81111561235257600080fd5b61235e858286016120b3565b9150509250929050565b61237181612a4a565b82525050565b61238081612a5c565b82525050565b60006123918261294c565b61239b8185612962565b93506123ab818560208601612acd565b6123b481612c99565b840191505092915050565b60006123ca82612957565b6123d48185612973565b93506123e4818560208601612acd565b6123ed81612c99565b840191505092915050565b600061240382612957565b61240d8185612984565b935061241d818560208601612acd565b80840191505092915050565b6000612436603283612973565b915061244182612caa565b604082019050919050565b6000612459602683612973565b915061246482612cf9565b604082019050919050565b600061247c602583612973565b915061248782612d48565b604082019050919050565b600061249f601c83612973565b91506124aa82612d97565b602082019050919050565b60006124c2602483612973565b91506124cd82612dc0565b604082019050919050565b60006124e5601983612973565b91506124f082612e0f565b602082019050919050565b6000612508602283612973565b915061251382612e38565b604082019050919050565b600061252b602983612973565b915061253682612e87565b604082019050919050565b600061254e603e83612973565b915061255982612ed6565b604082019050919050565b6000612571602083612973565b915061257c82612f25565b602082019050919050565b6000612594602083612973565b915061259f82612f4e565b602082019050919050565b60006125b7601883612973565b91506125c282612f77565b602082019050919050565b60006125da602183612973565b91506125e582612fa0565b604082019050919050565b60006125fd602e83612973565b915061260882612fef565b604082019050919050565b61261c81612ab4565b82525050565b600061262e82856123f8565b915061263a82846123f8565b91508190509392505050565b600060208201905061265b6000830184612368565b92915050565b60006080820190506126766000830187612368565b6126836020830186612368565b6126906040830185612613565b81810360608301526126a28184612386565b905095945050505050565b60006020820190506126c26000830184612377565b92915050565b600060208201905081810360008301526126e281846123bf565b905092915050565b6000602082019050818103600083015261270381612429565b9050919050565b600060208201905081810360008301526127238161244c565b9050919050565b600060208201905081810360008301526127438161246f565b9050919050565b6000602082019050818103600083015261276381612492565b9050919050565b60006020820190508181036000830152612783816124b5565b9050919050565b600060208201905081810360008301526127a3816124d8565b9050919050565b600060208201905081810360008301526127c3816124fb565b9050919050565b600060208201905081810360008301526127e38161251e565b9050919050565b6000602082019050818103600083015261280381612541565b9050919050565b6000602082019050818103600083015261282381612564565b9050919050565b6000602082019050818103600083015261284381612587565b9050919050565b60006020820190508181036000830152612863816125aa565b9050919050565b60006020820190508181036000830152612883816125cd565b9050919050565b600060208201905081810360008301526128a3816125f0565b9050919050565b60006020820190506128bf6000830184612613565b92915050565b60006128cf6128e0565b90506128db8282612b32565b919050565b6000604051905090565b600067ffffffffffffffff82111561290557612904612c6a565b5b61290e82612c99565b9050602081019050919050565b600067ffffffffffffffff82111561293657612935612c6a565b5b61293f82612c99565b9050602081019050919050565b600081519050919050565b600081519050919050565b600082825260208201905092915050565b600082825260208201905092915050565b600081905092915050565b600061299a82612ab4565b91506129a583612ab4565b9250827fffffffffffffffffffffffffffffffffffffffffffffffffffffffffffffffff038211156129da576129d9612bdd565b5b828201905092915050565b60006129f082612ab4565b91506129fb83612ab4565b925082612a0b57612a0a612c0c565b5b828204905092915050565b6000612a2182612ab4565b9150612a2c83612ab4565b925082821015612a3f57612a3e612bdd565b5b828203905092915050565b6000612a5582612a94565b9050919050565b60008115159050919050565b60007fffffffff0000000000000000000000000000000000000000000000000000000082169050919050565b600073ffffffffffffffffffffffffffffffffffffffff82169050919050565b6000819050919050565b82818337600083830152505050565b60005b83811015612aeb578082015181840152602081019050612ad0565b83811115612afa576000848401525b50505050565b60006002820490506001821680612b1857607f821691505b60208210811415612b2c57612b2b612c3b565b5b50919050565b612b3b82612c99565b810181811067ffffffffffffffff82111715612b5a57612b59612c6a565b5b80604052505050565b6000612b6e82612ab4565b91507fffffffffffffffffffffffffffffffffffffffffffffffffffffffffffffffff821415612ba157612ba0612bdd565b5b600182019050919050565b6000612bb782612ab4565b9150612bc283612ab4565b925082612bd257612bd1612c0c565b5b828206905092915050565b7f4e487b7100000000000000000000000000000000000000000000000000000000600052601160045260246000fd5b7f4e487b7100000000000000000000000000000000000000000000000000000000600052601260045260246000fd5b7f4e487b7100000000000000000000000000000000000000000000000000000000600052602260045260246000fd5b7f4e487b7100000000000000000000000000000000000000000000000000000000600052604160045260246000fd5b6000601f19601f8301169050919050565b7f4552433732313a207472616e7366657220746f206e6f6e20455243373231526560008201527f63656976657220696d706c656d656e7465720000000000000000000000000000602082015250565b7f4f776e61626c653a206e6577206f776e657220697320746865207a65726f206160008201527f6464726573730000000000000000000000000000000000000000000000000000602082015250565b7f4552433732313a207472616e736665722066726f6d20696e636f72726563742060008201527f6f776e6572000000000000000000000000000000000000000000000000000000602082015250565b7f4552433732313a20746f6b656e20616c7265616479206d696e74656400000000600082015250565b7f4552433732313a207472616e7366657220746f20746865207a65726f2061646460008201527f7265737300000000000000000000000000000000000000000000000000000000602082015250565b7f4552433732313a20617070726f766520746f2063616c6c657200000000000000600082015250565b7f596f752063616e2774206d696e742c2074686520737570706c79206973206f7660008201527f6572000000000000000000000000000000000000000000000000000000000000602082015250565b7f4552433732313a2061646472657373207a65726f206973206e6f74206120766160008201527f6c6964206f776e65720000000000000000000000000000000000000000000000602082015250565b7f4552433732313a20617070726f76652063616c6c6572206973206e6f7420746f60008201527f6b656e206f776e6572206e6f7220617070726f76656420666f7220616c6c0000602082015250565b7f4552433732313a206d696e7420746f20746865207a65726f2061646472657373600082015250565b7f4f776e61626c653a2063616c6c6572206973206e6f7420746865206f776e6572600082015250565b7f4552433732313a20696e76616c696420746f6b656e2049440000000000000000600082015250565b7f4552433732313a20617070726f76616c20746f2063757272656e74206f776e6560008201527f7200000000000000000000000000000000000000000000000000000000000000602082015250565b7f4552433732313a2063616c6c6572206973206e6f7420746f6b656e206f776e6560008201527f72206e6f7220617070726f766564000000000000000000000000000000000000602082015250565b61304781612a4a565b811461305257600080fd5b50565b61305e81612a5c565b811461306957600080fd5b50565b61307581612a68565b811461308057600080fd5b50565b61308c81612ab4565b811461309757600080fd5b5056fea264697066735822122092ccc46e90595a811de981b9465d709805f99ce859745fa54beb7fcd52c8633b64736f6c63430008040033",
  "linkReferences": {},
  "deployedLinkReferences": {}
}