{
  "_format": "hh-sol-artifact-1",
  "contractName": "ERC721",
  "sourceName": "contracts/collection.sol",
  "abi": [
    {
      "inputs": [
        {
          "internalType": "string",
          "name": "name_",
          "type": "string"
        },
        {
          "internalType": "string",
          "name": "symbol_",
          "type": "string"
        }
      ],
      "stateMutability": "nonpayable",
      "type": "constructor"
    },
    {
      "anonymous": false,
      "inputs": [
        {
          "indexed": true,
          "internalType": "address",
          "name": "owner",
          "type": "address"
        },
        {
          "indexed": true,
          "internalType": "address",
          "name": "approved",
          "type": "address"
        },
        {
          "indexed": true,
          "internalType": "uint256",
          "name": "tokenId",
          "type": "uint256"
        }
      ],
      "name": "Approval",
      "type": "event"
    },
    {
      "anonymous": false,
      "inputs": [
        {
          "indexed": true,
          "internalType": "address",
          "name": "owner",
          "type": "address"
        },
        {
          "indexed": true,
          "internalType": "address",
          "name": "operator",
          "type": "address"
        },
        {
          "indexed": false,
          "internalType": "bool",
          "name": "approved",
          "type": "bool"
        }
      ],
      "name": "ApprovalForAll",
      "type": "event"
    },
    {
      "anonymous": false,
      "inputs": [
        {
          "indexed": true,
          "internalType": "address",
          "name": "previousOwner",
          "type": "address"
        },
        {
          "indexed": true,
          "internalType": "address",
          "name": "newOwner",
          "type": "address"
        }
      ],
      "name": "OwnershipTransferred",
      "type": "event"
    },
    {
      "anonymous": false,
      "inputs": [
        {
          "indexed": true,
          "internalType": "address",
          "name": "from",
          "type": "address"
        },
        {
          "indexed": true,
          "internalType": "address",
          "name": "to",
          "type": "address"
        },
        {
          "indexed": true,
          "internalType": "uint256",
          "name": "tokenId",
          "type": "uint256"
        }
      ],
      "name": "Transfer",
      "type": "event"
    },
    {
      "inputs": [
        {
          "internalType": "address",
          "name": "to",
          "type": "address"
        },
        {
          "internalType": "uint256",
          "name": "tokenId",
          "type": "uint256"
        }
      ],
      "name": "approve",
      "outputs": [],
      "stateMutability": "nonpayable",
      "type": "function"
    },
    {
      "inputs": [
        {
          "internalType": "address",
          "name": "owner",
          "type": "address"
        }
      ],
      "name": "balanceOf",
      "outputs": [
        {
          "internalType": "uint256",
          "name": "",
          "type": "uint256"
        }
      ],
      "stateMutability": "view",
      "type": "function"
    },
    {
      "inputs": [
        {
          "internalType": "uint256",
          "name": "tokenId",
          "type": "uint256"
        }
      ],
      "name": "getApproved",
      "outputs": [
        {
          "internalType": "address",
          "name": "",
          "type": "address"
        }
      ],
      "stateMutability": "view",
      "type": "function"
    },
    {
      "inputs": [
        {
          "internalType": "address",
          "name": "owner",
          "type": "address"
        },
        {
          "internalType": "address",
          "name": "operator",
          "type": "address"
        }
      ],
      "name": "isApprovedForAll",
      "outputs": [
        {
          "internalType": "bool",
          "name": "",
          "type": "bool"
        }
      ],
      "stateMutability": "view",
      "type": "function"
    },
    {
      "inputs": [],
      "name": "name",
      "outputs": [
        {
          "internalType": "string",
          "name": "",
          "type": "string"
        }
      ],
      "stateMutability": "view",
      "type": "function"
    },
    {
      "inputs": [],
      "name": "owner",
      "outputs": [
        {
          "internalType": "address",
          "name": "",
          "type": "address"
        }
      ],
      "stateMutability": "view",
      "type": "function"
    },
    {
      "inputs": [
        {
          "internalType": "uint256",
          "name": "tokenId",
          "type": "uint256"
        }
      ],
      "name": "ownerOf",
      "outputs": [
        {
          "internalType": "address",
          "name": "",
          "type": "address"
        }
      ],
      "stateMutability": "view",
      "type": "function"
    },
    {
      "inputs": [],
      "name": "renounceOwnership",
      "outputs": [],
      "stateMutability": "nonpayable",
      "type": "function"
    },
    {
      "inputs": [
        {
          "internalType": "address",
          "name": "from",
          "type": "address"
        },
        {
          "internalType": "address",
          "name": "to",
          "type": "address"
        },
        {
          "internalType": "uint256",
          "name": "tokenId",
          "type": "uint256"
        }
      ],
      "name": "safeTransferFrom",
      "outputs": [],
      "stateMutability": "nonpayable",
      "type": "function"
    },
    {
      "inputs": [
        {
          "internalType": "address",
          "name": "from",
          "type": "address"
        },
        {
          "internalType": "address",
          "name": "to",
          "type": "address"
        },
        {
          "internalType": "uint256",
          "name": "tokenId",
          "type": "uint256"
        },
        {
          "internalType": "bytes",
          "name": "data",
          "type": "bytes"
        }
      ],
      "name": "safeTransferFrom",
      "outputs": [],
      "stateMutability": "nonpayable",
      "type": "function"
    },
    {
      "inputs": [
        {
          "internalType": "address",
          "name": "operator",
          "type": "address"
        },
        {
          "internalType": "bool",
          "name": "approved",
          "type": "bool"
        }
      ],
      "name": "setApprovalForAll",
      "outputs": [],
      "stateMutability": "nonpayable",
      "type": "function"
    },
    {
      "inputs": [
        {
          "internalType": "bytes4",
          "name": "interfaceId",
          "type": "bytes4"
        }
      ],
      "name": "supportsInterface",
      "outputs": [
        {
          "internalType": "bool",
          "name": "",
          "type": "bool"
        }
      ],
      "stateMutability": "view",
      "type": "function"
    },
    {
      "inputs": [],
      "name": "symbol",
      "outputs": [
        {
          "internalType": "string",
          "name": "",
          "type": "string"
        }
      ],
      "stateMutability": "view",
      "type": "function"
    },
    {
      "inputs": [
        {
          "internalType": "uint256",
          "name": "tokenId",
          "type": "uint256"
        }
      ],
      "name": "tokenURI",
      "outputs": [
        {
          "internalType": "string",
          "name": "",
          "type": "string"
        }
      ],
      "stateMutability": "view",
      "type": "function"
    },
    {
      "inputs": [],
      "name": "totalSupply",
      "outputs": [
        {
          "internalType": "uint256",
          "name": "",
          "type": "uint256"
        }
      ],
      "stateMutability": "view",
      "type": "function"
    },
    {
      "inputs": [
        {
          "internalType": "address",
          "name": "from",
          "type": "address"
        },
        {
          "internalType": "address",
          "name": "to",
          "type": "address"
        },
        {
          "internalType": "uint256",
          "name": "tokenId",
          "type": "uint256"
        }
      ],
      "name": "transferFrom",
      "outputs": [],
      "stateMutability": "nonpayable",
      "type": "function"
    },
    {
      "inputs": [
        {
          "internalType": "address",
          "name": "newOwner",
          "type": "address"
        }
      ],
      "name": "transferOwnership",
      "outputs": [],
      "stateMutability": "nonpayable",
      "type": "function"
    }
  ],
  "bytecode": "0x608060405261270f60035560636004553480156200001c57600080fd5b5060405162002b9e38038062002b9e83398181016040528101906200004291906200028a565b62000062620000566200009c60201b60201c565b620000a460201b60201c565b81600190805190602001906200007a92919062000168565b5080600290805190602001906200009392919062000168565b5050506200046d565b600033905090565b60008060009054906101000a900473ffffffffffffffffffffffffffffffffffffffff169050816000806101000a81548173ffffffffffffffffffffffffffffffffffffffff021916908373ffffffffffffffffffffffffffffffffffffffff1602179055508173ffffffffffffffffffffffffffffffffffffffff168173ffffffffffffffffffffffffffffffffffffffff167f8be0079c531659141344cd1fd0a4f28419497f9722a3daafe3b4186f6b6457e060405160405180910390a35050565b828054620001769062000392565b90600052602060002090601f0160209004810192826200019a5760008555620001e6565b82601f10620001b557805160ff1916838001178555620001e6565b82800160010185558215620001e6579182015b82811115620001e5578251825591602001919060010190620001c8565b5b509050620001f59190620001f9565b5090565b5b8082111562000214576000816000905550600101620001fa565b5090565b60006200022f620002298462000326565b620002fd565b9050828152602081018484840111156200024857600080fd5b620002558482856200035c565b509392505050565b600082601f8301126200026f57600080fd5b81516200028184826020860162000218565b91505092915050565b600080604083850312156200029e57600080fd5b600083015167ffffffffffffffff811115620002b957600080fd5b620002c7858286016200025d565b925050602083015167ffffffffffffffff811115620002e557600080fd5b620002f3858286016200025d565b9150509250929050565b6000620003096200031c565b9050620003178282620003c8565b919050565b6000604051905090565b600067ffffffffffffffff8211156200034457620003436200042d565b5b6200034f826200045c565b9050602081019050919050565b60005b838110156200037c5780820151818401526020810190506200035f565b838111156200038c576000848401525b50505050565b60006002820490506001821680620003ab57607f821691505b60208210811415620003c257620003c1620003fe565b5b50919050565b620003d3826200045c565b810181811067ffffffffffffffff82111715620003f557620003f46200042d565b5b80604052505050565b7f4e487b7100000000000000000000000000000000000000000000000000000000600052602260045260246000fd5b7f4e487b7100000000000000000000000000000000000000000000000000000000600052604160045260246000fd5b6000601f19601f8301169050919050565b612721806200047d6000396000f3fe608060405234801561001057600080fd5b506004361061010b5760003560e01c806370a08231116100a2578063a22cb46511610071578063a22cb465146102a6578063b88d4fde146102c2578063c87b56dd146102de578063e985e9c51461030e578063f2fde38b1461033e5761010b565b806370a0823114610230578063715018a6146102605780638da5cb5b1461026a57806395d89b41146102885761010b565b806318160ddd116100de57806318160ddd146101aa57806323b872dd146101c857806342842e0e146101e45780636352211e146102005761010b565b806301ffc9a71461011057806306fdde0314610140578063081812fc1461015e578063095ea7b31461018e575b600080fd5b61012a60048036038101906101259190611ad9565b61035a565b6040516101379190611e30565b60405180910390f35b61014861043c565b6040516101559190611e4b565b60405180910390f35b61017860048036038101906101739190611b2b565b6104ce565b6040516101859190611dc9565b60405180910390f35b6101a860048036038101906101a39190611a9d565b610514565b005b6101b261062c565b6040516101bf9190611fcd565b60405180910390f35b6101e260048036038101906101dd9190611997565b610636565b005b6101fe60048036038101906101f99190611997565b610696565b005b61021a60048036038101906102159190611b2b565b6106b6565b6040516102279190611dc9565b60405180910390f35b61024a60048036038101906102459190611932565b610768565b6040516102579190611fcd565b60405180910390f35b610268610820565b005b610272610834565b60405161027f9190611dc9565b60405180910390f35b61029061085d565b60405161029d9190611e4b565b60405180910390f35b6102c060048036038101906102bb9190611a61565b6108ef565b005b6102dc60048036038101906102d791906119e6565b610905565b005b6102f860048036038101906102f39190611b2b565b610967565b6040516103059190611e4b565b60405180910390f35b6103286004803603810190610323919061195b565b6109cf565b6040516103359190611e30565b60405180910390f35b61035860048036038101906103539190611932565b610a63565b005b60007f80ac58cd000000000000000000000000000000000000000000000000000000007bffffffffffffffffffffffffffffffffffffffffffffffffffffffff1916827bffffffffffffffffffffffffffffffffffffffffffffffffffffffff1916148061042557507f5b5e139f000000000000000000000000000000000000000000000000000000007bffffffffffffffffffffffffffffffffffffffffffffffffffffffff1916827bffffffffffffffffffffffffffffffffffffffffffffffffffffffff1916145b80610435575061043482610ae7565b5b9050919050565b60606001805461044b906121f2565b80601f0160208091040260200160405190810160405280929190818152602001828054610477906121f2565b80156104c45780601f10610499576101008083540402835291602001916104c4565b820191906000526020600020905b8154815290600101906020018083116104a757829003601f168201915b5050505050905090565b60006104d982610b51565b6009600083815260200190815260200160002060009054906101000a900473ffffffffffffffffffffffffffffffffffffffff169050919050565b600061051f826106b6565b90508073ffffffffffffffffffffffffffffffffffffffff168373ffffffffffffffffffffffffffffffffffffffff161415610590576040517f08c379a000000000000000000000000000000000000000000000000000000000815260040161058790611f8d565b60405180910390fd5b8073ffffffffffffffffffffffffffffffffffffffff166105af610b9c565b73ffffffffffffffffffffffffffffffffffffffff1614806105de57506105dd816105d8610b9c565b6109cf565b5b61061d576040517f08c379a000000000000000000000000000000000000000000000000000000000815260040161061490611f2d565b60405180910390fd5b6106278383610ba4565b505050565b6000600554905090565b610647610641610b9c565b82610c5d565b610686576040517f08c379a000000000000000000000000000000000000000000000000000000000815260040161067d90611fad565b60405180910390fd5b610691838383610cf2565b505050565b6106b183838360405180602001604052806000815250610905565b505050565b6000806006600084815260200190815260200160002060009054906101000a900473ffffffffffffffffffffffffffffffffffffffff169050600073ffffffffffffffffffffffffffffffffffffffff168173ffffffffffffffffffffffffffffffffffffffff16141561075f576040517f08c379a000000000000000000000000000000000000000000000000000000000815260040161075690611f6d565b60405180910390fd5b80915050919050565b60008073ffffffffffffffffffffffffffffffffffffffff168273ffffffffffffffffffffffffffffffffffffffff1614156107d9576040517f08c379a00000000000000000000000000000000000000000000000000000000081526004016107d090611f0d565b60405180910390fd5b600860008373ffffffffffffffffffffffffffffffffffffffff1673ffffffffffffffffffffffffffffffffffffffff168152602001908152602001600020549050919050565b610828610fe9565b6108326000611067565b565b60008060009054906101000a900473ffffffffffffffffffffffffffffffffffffffff16905090565b60606002805461086c906121f2565b80601f0160208091040260200160405190810160405280929190818152602001828054610898906121f2565b80156108e55780601f106108ba576101008083540402835291602001916108e5565b820191906000526020600020905b8154815290600101906020018083116108c857829003601f168201915b5050505050905090565b6109016108fa610b9c565b838361112b565b5050565b610916610910610b9c565b83610c5d565b610955576040517f08c379a000000000000000000000000000000000000000000000000000000000815260040161094c90611fad565b60405180910390fd5b61096184848484611298565b50505050565b606061097282610b51565b600061097c6112f4565b9050600081511161099c57604051806020016040528060008152506109c7565b806109a68461130b565b6040516020016109b7929190611da5565b6040516020818303038152906040525b915050919050565b6000600a60008473ffffffffffffffffffffffffffffffffffffffff1673ffffffffffffffffffffffffffffffffffffffff16815260200190815260200160002060008373ffffffffffffffffffffffffffffffffffffffff1673ffffffffffffffffffffffffffffffffffffffff16815260200190815260200160002060009054906101000a900460ff16905092915050565b610a6b610fe9565b600073ffffffffffffffffffffffffffffffffffffffff168173ffffffffffffffffffffffffffffffffffffffff161415610adb576040517f08c379a0000000000000000000000000000000000000000000000000000000008152600401610ad290611e8d565b60405180910390fd5b610ae481611067565b50565b60007f01ffc9a7000000000000000000000000000000000000000000000000000000007bffffffffffffffffffffffffffffffffffffffffffffffffffffffff1916827bffffffffffffffffffffffffffffffffffffffffffffffffffffffff1916149050919050565b610b5a816114b8565b610b99576040517f08c379a0000000000000000000000000000000000000000000000000000000008152600401610b9090611f6d565b60405180910390fd5b50565b600033905090565b816009600083815260200190815260200160002060006101000a81548173ffffffffffffffffffffffffffffffffffffffff021916908373ffffffffffffffffffffffffffffffffffffffff160217905550808273ffffffffffffffffffffffffffffffffffffffff16610c17836106b6565b73ffffffffffffffffffffffffffffffffffffffff167f8c5be1e5ebec7d5bd14f71427d1e84f3dd0314c0f7b2291e5b200ac8c7c3b92560405160405180910390a45050565b600080610c69836106b6565b90508073ffffffffffffffffffffffffffffffffffffffff168473ffffffffffffffffffffffffffffffffffffffff161480610cab5750610caa81856109cf565b5b80610ce957508373ffffffffffffffffffffffffffffffffffffffff16610cd1846104ce565b73ffffffffffffffffffffffffffffffffffffffff16145b91505092915050565b8273ffffffffffffffffffffffffffffffffffffffff16610d12826106b6565b73ffffffffffffffffffffffffffffffffffffffff1614610d68576040517f08c379a0000000000000000000000000000000000000000000000000000000008152600401610d5f90611ead565b60405180910390fd5b600073ffffffffffffffffffffffffffffffffffffffff168273ffffffffffffffffffffffffffffffffffffffff161415610dd8576040517f08c379a0000000000000000000000000000000000000000000000000000000008152600401610dcf90611ecd565b60405180910390fd5b610de3838383611524565b610dee600082610ba4565b6001600860008573ffffffffffffffffffffffffffffffffffffffff1673ffffffffffffffffffffffffffffffffffffffff1681526020019081526020016000206000828254610e3e9190612108565b925050819055506001600860008473ffffffffffffffffffffffffffffffffffffffff1673ffffffffffffffffffffffffffffffffffffffff1681526020019081526020016000206000828254610e959190612081565b92505081905550816006600083815260200190815260200160002060006101000a81548173ffffffffffffffffffffffffffffffffffffffff021916908373ffffffffffffffffffffffffffffffffffffffff1602179055506000600760008473ffffffffffffffffffffffffffffffffffffffff1673ffffffffffffffffffffffffffffffffffffffff16815260200190815260200160002060009054906101000a900460ff169050600015158115151415610f7d5760046000815480929190610f5f90612255565b919050555060035460045411610f7c57610f7b60045484611529565b5b5b818373ffffffffffffffffffffffffffffffffffffffff168573ffffffffffffffffffffffffffffffffffffffff167fddf252ad1be2c89b69c2b068fc378daa952ba7f163c4a11628f55a4df523b3ef60405160405180910390a4610fe38484846116a2565b50505050565b610ff1610b9c565b73ffffffffffffffffffffffffffffffffffffffff1661100f610834565b73ffffffffffffffffffffffffffffffffffffffff1614611065576040517f08c379a000000000000000000000000000000000000000000000000000000000815260040161105c90611f4d565b60405180910390fd5b565b60008060009054906101000a900473ffffffffffffffffffffffffffffffffffffffff169050816000806101000a81548173ffffffffffffffffffffffffffffffffffffffff021916908373ffffffffffffffffffffffffffffffffffffffff1602179055508173ffffffffffffffffffffffffffffffffffffffff168173ffffffffffffffffffffffffffffffffffffffff167f8be0079c531659141344cd1fd0a4f28419497f9722a3daafe3b4186f6b6457e060405160405180910390a35050565b8173ffffffffffffffffffffffffffffffffffffffff168373ffffffffffffffffffffffffffffffffffffffff16141561119a576040517f08c379a000000000000000000000000000000000000000000000000000000000815260040161119190611eed565b60405180910390fd5b80600a60008573ffffffffffffffffffffffffffffffffffffffff1673ffffffffffffffffffffffffffffffffffffffff16815260200190815260200160002060008473ffffffffffffffffffffffffffffffffffffffff1673ffffffffffffffffffffffffffffffffffffffff16815260200190815260200160002060006101000a81548160ff0219169083151502179055508173ffffffffffffffffffffffffffffffffffffffff168373ffffffffffffffffffffffffffffffffffffffff167f17307eab39ab6107e8899845ad3d59bd9653f200f220920489ca2b5937696c318360405161128b9190611e30565b60405180910390a3505050565b6112a3848484610cf2565b6112af848484846116a7565b6112ee576040517f08c379a00000000000000000000000000000000000000000000000000000000081526004016112e590611e6d565b60405180910390fd5b50505050565b606060405180602001604052806000815250905090565b60606000821415611353576040518060400160405280600181526020017f300000000000000000000000000000000000000000000000000000000000000081525090506114b3565b600082905060005b6000821461138557808061136e90612255565b915050600a8261137e91906120d7565b915061135b565b60008167ffffffffffffffff8111156113c7577f4e487b7100000000000000000000000000000000000000000000000000000000600052604160045260246000fd5b6040519080825280601f01601f1916602001820160405280156113f95781602001600182028036833780820191505090505b5090505b600085146114ac576001826114129190612108565b9150600a85611421919061229e565b603061142d9190612081565b60f81b818381518110611469577f4e487b7100000000000000000000000000000000000000000000000000000000600052603260045260246000fd5b60200101907effffffffffffffffffffffffffffffffffffffffffffffffffffffffffffff1916908160001a905350600a856114a591906120d7565b94506113fd565b8093505050505b919050565b60008073ffffffffffffffffffffffffffffffffffffffff166006600084815260200190815260200160002060009054906101000a900473ffffffffffffffffffffffffffffffffffffffff1673ffffffffffffffffffffffffffffffffffffffff1614159050919050565b505050565b61153560008284611524565b6001600860008373ffffffffffffffffffffffffffffffffffffffff1673ffffffffffffffffffffffffffffffffffffffff16815260200190815260200160002060008282546115859190612081565b92505081905550806006600084815260200190815260200160002060006101000a81548173ffffffffffffffffffffffffffffffffffffffff021916908373ffffffffffffffffffffffffffffffffffffffff160217905550818173ffffffffffffffffffffffffffffffffffffffff16600073ffffffffffffffffffffffffffffffffffffffff167fddf252ad1be2c89b69c2b068fc378daa952ba7f163c4a11628f55a4df523b3ef60405160405180910390a4611646600082846116a2565b6001600760008373ffffffffffffffffffffffffffffffffffffffff1673ffffffffffffffffffffffffffffffffffffffff16815260200190815260200160002060006101000a81548160ff0219169083151502179055505050565b505050565b60006116c88473ffffffffffffffffffffffffffffffffffffffff1661183e565b15611831578373ffffffffffffffffffffffffffffffffffffffff1663150b7a026116f1610b9c565b8786866040518563ffffffff1660e01b81526004016117139493929190611de4565b602060405180830381600087803b15801561172d57600080fd5b505af192505050801561175e57506040513d601f19601f8201168201806040525081019061175b9190611b02565b60015b6117e1573d806000811461178e576040519150601f19603f3d011682016040523d82523d6000602084013e611793565b606091505b506000815114156117d9576040517f08c379a00000000000000000000000000000000000000000000000000000000081526004016117d090611e6d565b60405180910390fd5b805181602001fd5b63150b7a0260e01b7bffffffffffffffffffffffffffffffffffffffffffffffffffffffff1916817bffffffffffffffffffffffffffffffffffffffffffffffffffffffff191614915050611836565b600190505b949350505050565b6000808273ffffffffffffffffffffffffffffffffffffffff163b119050919050565b600061187461186f8461200d565b611fe8565b90508281526020810184848401111561188c57600080fd5b6118978482856121b0565b509392505050565b6000813590506118ae8161268f565b92915050565b6000813590506118c3816126a6565b92915050565b6000813590506118d8816126bd565b92915050565b6000815190506118ed816126bd565b92915050565b600082601f83011261190457600080fd5b8135611914848260208601611861565b91505092915050565b60008135905061192c816126d4565b92915050565b60006020828403121561194457600080fd5b60006119528482850161189f565b91505092915050565b6000806040838503121561196e57600080fd5b600061197c8582860161189f565b925050602061198d8582860161189f565b9150509250929050565b6000806000606084860312156119ac57600080fd5b60006119ba8682870161189f565b93505060206119cb8682870161189f565b92505060406119dc8682870161191d565b9150509250925092565b600080600080608085870312156119fc57600080fd5b6000611a0a8782880161189f565b9450506020611a1b8782880161189f565b9350506040611a2c8782880161191d565b925050606085013567ffffffffffffffff811115611a4957600080fd5b611a55878288016118f3565b91505092959194509250565b60008060408385031215611a7457600080fd5b6000611a828582860161189f565b9250506020611a93858286016118b4565b9150509250929050565b60008060408385031215611ab057600080fd5b6000611abe8582860161189f565b9250506020611acf8582860161191d565b9150509250929050565b600060208284031215611aeb57600080fd5b6000611af9848285016118c9565b91505092915050565b600060208284031215611b1457600080fd5b6000611b22848285016118de565b91505092915050565b600060208284031215611b3d57600080fd5b6000611b4b8482850161191d565b91505092915050565b611b5d8161213c565b82525050565b611b6c8161214e565b82525050565b6000611b7d8261203e565b611b878185612054565b9350611b978185602086016121bf565b611ba08161238b565b840191505092915050565b6000611bb682612049565b611bc08185612065565b9350611bd08185602086016121bf565b611bd98161238b565b840191505092915050565b6000611bef82612049565b611bf98185612076565b9350611c098185602086016121bf565b80840191505092915050565b6000611c22603283612065565b9150611c2d8261239c565b604082019050919050565b6000611c45602683612065565b9150611c50826123eb565b604082019050919050565b6000611c68602583612065565b9150611c738261243a565b604082019050919050565b6000611c8b602483612065565b9150611c9682612489565b604082019050919050565b6000611cae601983612065565b9150611cb9826124d8565b602082019050919050565b6000611cd1602983612065565b9150611cdc82612501565b604082019050919050565b6000611cf4603e83612065565b9150611cff82612550565b604082019050919050565b6000611d17602083612065565b9150611d228261259f565b602082019050919050565b6000611d3a601883612065565b9150611d45826125c8565b602082019050919050565b6000611d5d602183612065565b9150611d68826125f1565b604082019050919050565b6000611d80602e83612065565b9150611d8b82612640565b604082019050919050565b611d9f816121a6565b82525050565b6000611db18285611be4565b9150611dbd8284611be4565b91508190509392505050565b6000602082019050611dde6000830184611b54565b92915050565b6000608082019050611df96000830187611b54565b611e066020830186611b54565b611e136040830185611d96565b8181036060830152611e258184611b72565b905095945050505050565b6000602082019050611e456000830184611b63565b92915050565b60006020820190508181036000830152611e658184611bab565b905092915050565b60006020820190508181036000830152611e8681611c15565b9050919050565b60006020820190508181036000830152611ea681611c38565b9050919050565b60006020820190508181036000830152611ec681611c5b565b9050919050565b60006020820190508181036000830152611ee681611c7e565b9050919050565b60006020820190508181036000830152611f0681611ca1565b9050919050565b60006020820190508181036000830152611f2681611cc4565b9050919050565b60006020820190508181036000830152611f4681611ce7565b9050919050565b60006020820190508181036000830152611f6681611d0a565b9050919050565b60006020820190508181036000830152611f8681611d2d565b9050919050565b60006020820190508181036000830152611fa681611d50565b9050919050565b60006020820190508181036000830152611fc681611d73565b9050919050565b6000602082019050611fe26000830184611d96565b92915050565b6000611ff2612003565b9050611ffe8282612224565b919050565b6000604051905090565b600067ffffffffffffffff8211156120285761202761235c565b5b6120318261238b565b9050602081019050919050565b600081519050919050565b600081519050919050565b600082825260208201905092915050565b600082825260208201905092915050565b600081905092915050565b600061208c826121a6565b9150612097836121a6565b9250827fffffffffffffffffffffffffffffffffffffffffffffffffffffffffffffffff038211156120cc576120cb6122cf565b5b828201905092915050565b60006120e2826121a6565b91506120ed836121a6565b9250826120fd576120fc6122fe565b5b828204905092915050565b6000612113826121a6565b915061211e836121a6565b925082821015612131576121306122cf565b5b828203905092915050565b600061214782612186565b9050919050565b60008115159050919050565b60007fffffffff0000000000000000000000000000000000000000000000000000000082169050919050565b600073ffffffffffffffffffffffffffffffffffffffff82169050919050565b6000819050919050565b82818337600083830152505050565b60005b838110156121dd5780820151818401526020810190506121c2565b838111156121ec576000848401525b50505050565b6000600282049050600182168061220a57607f821691505b6020821081141561221e5761221d61232d565b5b50919050565b61222d8261238b565b810181811067ffffffffffffffff8211171561224c5761224b61235c565b5b80604052505050565b6000612260826121a6565b91507fffffffffffffffffffffffffffffffffffffffffffffffffffffffffffffffff821415612293576122926122cf565b5b600182019050919050565b60006122a9826121a6565b91506122b4836121a6565b9250826122c4576122c36122fe565b5b828206905092915050565b7f4e487b7100000000000000000000000000000000000000000000000000000000600052601160045260246000fd5b7f4e487b7100000000000000000000000000000000000000000000000000000000600052601260045260246000fd5b7f4e487b7100000000000000000000000000000000000000000000000000000000600052602260045260246000fd5b7f4e487b7100000000000000000000000000000000000000000000000000000000600052604160045260246000fd5b6000601f19601f8301169050919050565b7f4552433732313a207472616e7366657220746f206e6f6e20455243373231526560008201527f63656976657220696d706c656d656e7465720000000000000000000000000000602082015250565b7f4f776e61626c653a206e6577206f776e657220697320746865207a65726f206160008201527f6464726573730000000000000000000000000000000000000000000000000000602082015250565b7f4552433732313a207472616e736665722066726f6d20696e636f72726563742060008201527f6f776e6572000000000000000000000000000000000000000000000000000000602082015250565b7f4552433732313a207472616e7366657220746f20746865207a65726f2061646460008201527f7265737300000000000000000000000000000000000000000000000000000000602082015250565b7f4552433732313a20617070726f766520746f2063616c6c657200000000000000600082015250565b7f4552433732313a2061646472657373207a65726f206973206e6f74206120766160008201527f6c6964206f776e65720000000000000000000000000000000000000000000000602082015250565b7f4552433732313a20617070726f76652063616c6c6572206973206e6f7420746f60008201527f6b656e206f776e6572206e6f7220617070726f76656420666f7220616c6c0000602082015250565b7f4f776e61626c653a2063616c6c6572206973206e6f7420746865206f776e6572600082015250565b7f4552433732313a20696e76616c696420746f6b656e2049440000000000000000600082015250565b7f4552433732313a20617070726f76616c20746f2063757272656e74206f776e6560008201527f7200000000000000000000000000000000000000000000000000000000000000602082015250565b7f4552433732313a2063616c6c6572206973206e6f7420746f6b656e206f776e6560008201527f72206e6f7220617070726f766564000000000000000000000000000000000000602082015250565b6126988161213c565b81146126a357600080fd5b50565b6126af8161214e565b81146126ba57600080fd5b50565b6126c68161215a565b81146126d157600080fd5b50565b6126dd816121a6565b81146126e857600080fd5b5056fea264697066735822122027c4eb8a76b756a3b28356691558e4e4bfe2c7a2b33851eaf45c1d4d4226125364736f6c63430008040033",
  "linkReferences": {},
  "deployedLinkReferences": {}
}